{
  "contractName": "contractA",
  "abi": [
    {
      "inputs": [
        {
          "internalType": "address",
          "name": "_contractB",
          "type": "address"
        }
      ],
      "stateMutability": "nonpayable",
      "type": "constructor"
    },
    {
      "inputs": [],
      "name": "addressContractB",
      "outputs": [
        {
          "internalType": "address",
          "name": "",
          "type": "address"
        }
      ],
      "stateMutability": "view",
      "type": "function"
    },
    {
      "inputs": [
        {
          "internalType": "uint256",
          "name": "",
          "type": "uint256"
        }
      ],
      "name": "numToNum",
      "outputs": [
        {
          "internalType": "uint256",
          "name": "",
          "type": "uint256"
        }
      ],
      "stateMutability": "view",
      "type": "function"
    },
    {
      "inputs": [
        {
          "internalType": "uint256",
          "name": "_num1",
          "type": "uint256"
        }
      ],
      "name": "getNum",
      "outputs": [
        {
          "internalType": "uint256",
          "name": "",
          "type": "uint256"
        }
      ],
      "stateMutability": "view",
      "type": "function"
    },
    {
      "inputs": [
        {
          "internalType": "uint256",
          "name": "_num1",
          "type": "uint256"
        },
        {
          "internalType": "uint256",
          "name": "_num2",
          "type": "uint256"
        }
      ],
      "name": "updateMapping",
      "outputs": [],
      "stateMutability": "nonpayable",
      "type": "function"
    }
  ],
  "bytecode": "0x608060405234801561001057600080fd5b506040516104e63803806104e6833981810160405281019061003291906100db565b806000806101000a81548173ffffffffffffffffffffffffffffffffffffffff021916908373ffffffffffffffffffffffffffffffffffffffff16021790555050610108565b600080fd5b600073ffffffffffffffffffffffffffffffffffffffff82169050919050565b60006100a88261007d565b9050919050565b6100b88161009d565b81146100c357600080fd5b50565b6000815190506100d5816100af565b92915050565b6000602082840312156100f1576100f0610078565b5b60006100ff848285016100c6565b91505092915050565b6103cf806101176000396000f3fe608060405234801561001057600080fd5b506004361061004c5760003560e01c80634c30475e14610051578063da6435311461006f578063f3358ac41461009f578063faff16f0146100cf575b600080fd5b6100596100eb565b604051610066919061022f565b60405180910390f35b61008960048036038101906100849190610285565b61010f565b60405161009691906102c1565b60405180910390f35b6100b960048036038101906100b49190610285565b610127565b6040516100c691906102c1565b60405180910390f35b6100e960048036038101906100e491906102dc565b610144565b005b60008054906101000a900473ffffffffffffffffffffffffffffffffffffffff1681565b60016020528060005260406000206000915090505481565b600060016000838152602001908152602001600020549050919050565b60008054906101000a900473ffffffffffffffffffffffffffffffffffffffff1673ffffffffffffffffffffffffffffffffffffffff163373ffffffffffffffffffffffffffffffffffffffff16146101d2576040517f08c379a00000000000000000000000000000000000000000000000000000000081526004016101c990610379565b60405180910390fd5b8060016000848152602001908152602001600020819055505050565b600073ffffffffffffffffffffffffffffffffffffffff82169050919050565b6000610219826101ee565b9050919050565b6102298161020e565b82525050565b60006020820190506102446000830184610220565b92915050565b600080fd5b6000819050919050565b6102628161024f565b811461026d57600080fd5b50565b60008135905061027f81610259565b92915050565b60006020828403121561029b5761029a61024a565b5b60006102a984828501610270565b91505092915050565b6102bb8161024f565b82525050565b60006020820190506102d660008301846102b2565b92915050565b600080604083850312156102f3576102f261024a565b5b600061030185828601610270565b925050602061031285828601610270565b9150509250929050565b600082825260208201905092915050565b7f4f6e6c7920636f6e747261637420422063616e20757064617465000000000000600082015250565b6000610363601a8361031c565b915061036e8261032d565b602082019050919050565b6000602082019050818103600083015261039281610356565b905091905056fea264697066735822122014ea5cb9872a66cbd65954cd36a932d670977d9ed957962495ba34e865977b5a64736f6c634300080e0033",
  "immutableReferences": {},
  "source": "// SPDX-License-Identifier: MIT\npragma solidity >=0.4.22 <0.9.0;\n\ncontract contractA {\n    address public addressContractB;\n\n    mapping(uint256 => uint256) public numToNum;\n\n    constructor(address _contractB) {\n        addressContractB = _contractB;\n    }\n\n    function getNum(uint256 _num1) public view returns (uint256) {\n        return numToNum[_num1];\n    }\n\n    \n    function updateMapping(uint256 _num1, uint256 _num2) public {\n        require(msg.sender == addressContractB, \"Only contract B can update\");\n        numToNum[_num1] = _num2;\n    }\n}",
  "sourcePath": "C:\\Users\\DELL\\OneDrive\\Desktop\\A\\contracts\\contractA.sol",
  "compiler": {
    "name": "solc",
    "version": "0.8.14+commit.80d49f37.Emscripten.clang"
  },
  "schemaVersion": "3.4.7",
  "updatedAt": "2022-07-15T15:54:04.003Z",
  "devdoc": {
    "kind": "dev",
    "methods": {},
    "version": 1
  },
  "userdoc": {
    "kind": "user",
    "methods": {},
    "version": 1
  }
}