{
  "contractName": "contractC",
  "abi": [
    {
      "inputs": [
        {
          "internalType": "uint256",
          "name": "_num1",
          "type": "uint256"
        },
        {
          "internalType": "uint256",
          "name": "_num2",
          "type": "uint256"
        },
        {
          "internalType": "address",
          "name": "_address",
          "type": "address"
        }
      ],
      "name": "update",
      "outputs": [],
      "stateMutability": "nonpayable",
      "type": "function"
    }
  ],
  "bytecode": "0x608060405234801561001057600080fd5b50610218806100206000396000f3fe608060405234801561001057600080fd5b506004361061002b5760003560e01c80633707cfc114610030575b600080fd5b61004a60048036038101906100459190610157565b61004c565b005b8073ffffffffffffffffffffffffffffffffffffffff1663faff16f084846040518363ffffffff1660e01b81526004016100879291906101b9565b600060405180830381600087803b1580156100a157600080fd5b505af11580156100b5573d6000803e3d6000fd5b50505050505050565b600080fd5b6000819050919050565b6100d6816100c3565b81146100e157600080fd5b50565b6000813590506100f3816100cd565b92915050565b600073ffffffffffffffffffffffffffffffffffffffff82169050919050565b6000610124826100f9565b9050919050565b61013481610119565b811461013f57600080fd5b50565b6000813590506101518161012b565b92915050565b6000806000606084860312156101705761016f6100be565b5b600061017e868287016100e4565b935050602061018f868287016100e4565b92505060406101a086828701610142565b9150509250925092565b6101b3816100c3565b82525050565b60006040820190506101ce60008301856101aa565b6101db60208301846101aa565b939250505056fea2646970667358221220767c08c6914c4688ffa4732323ef8f7715c4060e59fe2ade46b39775cae7d11164736f6c634300080e0033",
  "immutableReferences": {},
  "source": "// SPDX-License-Identifier: MIT\npragma solidity >=0.4.22 <0.9.0;\n\nimport \"./contractA.sol\";\n\ncontract contractC {\n    function update(uint256 _num1, uint256 _num2, address _address) public {\n        contractA(_address).updateMapping(_num1, _num2);\n    }\n}",
  "sourcePath": "C:\\Users\\DELL\\OneDrive\\Desktop\\A\\contracts\\contractC.sol",
  "compiler": {
    "name": "solc",
    "version": "0.8.14+commit.80d49f37.Emscripten.clang"
  },
  "schemaVersion": "3.4.7",
  "updatedAt": "2022-07-15T15:54:04.029Z",
  "devdoc": {
    "kind": "dev",
    "methods": {},
    "version": 1
  },
  "userdoc": {
    "kind": "user",
    "methods": {},
    "version": 1
  }
}